{
  "contractName": "FundTransfer",
  "abi": [
    {
      "anonymous": false,
      "inputs": [
        {
          "indexed": false,
          "internalType": "uint256",
          "name": "funds",
          "type": "uint256"
        },
        {
          "indexed": false,
          "internalType": "string",
          "name": "govtBody",
          "type": "string"
        },
        {
          "indexed": false,
          "internalType": "string",
          "name": "time",
          "type": "string"
        }
      ],
      "name": "AddFund",
      "type": "event"
    },
    {
      "anonymous": false,
      "inputs": [
        {
          "indexed": false,
          "internalType": "string",
          "name": "govtBodyName",
          "type": "string"
        },
        {
          "indexed": false,
          "internalType": "address",
          "name": "accNumber",
          "type": "address"
        },
        {
          "indexed": false,
          "internalType": "string",
          "name": "govtBodyRole",
          "type": "string"
        }
      ],
      "name": "AddedGovtBody",
      "type": "event"
    },
    {
      "anonymous": false,
      "inputs": [
        {
          "indexed": false,
          "internalType": "uint256",
          "name": "funds",
          "type": "uint256"
        },
        {
          "indexed": false,
          "internalType": "address",
          "name": "senderGovtBody",
          "type": "address"
        },
        {
          "indexed": false,
          "internalType": "address",
          "name": "receiverGovtBody",
          "type": "address"
        },
        {
          "indexed": false,
          "internalType": "string",
          "name": "senderGovtBodyName",
          "type": "string"
        },
        {
          "indexed": false,
          "internalType": "string",
          "name": "receiverGovtBodyName",
          "type": "string"
        },
        {
          "indexed": false,
          "internalType": "string",
          "name": "projectName",
          "type": "string"
        },
        {
          "indexed": false,
          "internalType": "string",
          "name": "timestamp",
          "type": "string"
        }
      ],
      "name": "TransferFund",
      "type": "event"
    },
    {
      "anonymous": false,
      "inputs": [
        {
          "indexed": false,
          "internalType": "uint256",
          "name": "balance",
          "type": "uint256"
        }
      ],
      "name": "YourBalance",
      "type": "event"
    },
    {
      "constant": true,
      "inputs": [],
      "name": "totalFunds",
      "outputs": [
        {
          "internalType": "uint256",
          "name": "",
          "type": "uint256"
        }
      ],
      "payable": false,
      "stateMutability": "view",
      "type": "function"
    },
    {
      "constant": false,
      "inputs": [
        {
          "internalType": "address",
          "name": "accNumber",
          "type": "address"
        },
        {
          "internalType": "string",
          "name": "govtBodyName",
          "type": "string"
        },
        {
          "internalType": "string",
          "name": "govtBodyRole",
          "type": "string"
        }
      ],
      "name": "addGovernmentBody",
      "outputs": [],
      "payable": false,
      "stateMutability": "nonpayable",
      "type": "function"
    },
    {
      "constant": false,
      "inputs": [
        {
          "internalType": "uint256",
          "name": "funds",
          "type": "uint256"
        },
        {
          "internalType": "string",
          "name": "time",
          "type": "string"
        }
      ],
      "name": "addFunds",
      "outputs": [],
      "payable": false,
      "stateMutability": "nonpayable",
      "type": "function"
    },
    {
      "constant": false,
      "inputs": [
        {
          "internalType": "uint256",
          "name": "funds",
          "type": "uint256"
        },
        {
          "internalType": "string",
          "name": "projectName",
          "type": "string"
        },
        {
          "internalType": "string",
          "name": "govtBodyName",
          "type": "string"
        },
        {
          "internalType": "string",
          "name": "timestamp",
          "type": "string"
        }
      ],
      "name": "transferFunds",
      "outputs": [],
      "payable": false,
      "stateMutability": "nonpayable",
      "type": "function"
    },
    {
      "constant": false,
      "inputs": [
        {
          "internalType": "address",
          "name": "fok",
          "type": "address"
        }
      ],
      "name": "getFundBalance",
      "outputs": [
        {
          "internalType": "uint256",
          "name": "",
          "type": "uint256"
        }
      ],
      "payable": true,
      "stateMutability": "payable",
      "type": "function"
    },
    {
      "constant": true,
      "inputs": [],
      "name": "getTotalFundBalance",
      "outputs": [
        {
          "internalType": "uint256",
          "name": "",
          "type": "uint256"
        }
      ],
      "payable": false,
      "stateMutability": "view",
      "type": "function"
    }
  ],
  "bytecode": "0x60806040526000805534801561001457600080fd5b50611453806100246000396000f3fe6080604052600436106100555760003560e01c806302b401c91461005a5780632db0035414610085578063968ed60014610157578063d6d11c7f14610182578063d6e8832e146101da578063e8d77089146103da575b600080fd5b34801561006657600080fd5b5061006f610559565b6040518082815260200191505060405180910390f35b34801561009157600080fd5b50610155600480360360408110156100a857600080fd5b8101908080359060200190929190803590602001906401000000008111156100cf57600080fd5b8201836020820111156100e157600080fd5b8035906020019184600183028401116401000000008311171561010357600080fd5b91908080601f016020809104026020016040519081016040528093929190818152602001838380828437600081840152601f19601f820116905080830192505050505050509192919290505050610562565b005b34801561016357600080fd5b5061016c6107ae565b6040518082815260200191505060405180910390f35b6101c46004803603602081101561019857600080fd5b81019080803573ffffffffffffffffffffffffffffffffffffffff1690602001909291905050506107b4565b6040518082815260200191505060405180910390f35b3480156101e657600080fd5b506103d8600480360360808110156101fd57600080fd5b81019080803590602001909291908035906020019064010000000081111561022457600080fd5b82018360208201111561023657600080fd5b8035906020019184600183028401116401000000008311171561025857600080fd5b91908080601f016020809104026020016040519081016040528093929190818152602001838380828437600081840152601f19601f820116905080830192505050505050509192919290803590602001906401000000008111156102bb57600080fd5b8201836020820111156102cd57600080fd5b803590602001918460018302840111640100000000831117156102ef57600080fd5b91908080601f016020809104026020016040519081016040528093929190818152602001838380828437600081840152601f19601f8201169050808301925050505050505091929192908035906020019064010000000081111561035257600080fd5b82018360208201111561036457600080fd5b8035906020019184600183028401116401000000008311171561038657600080fd5b91908080601f016020809104026020016040519081016040528093929190818152602001838380828437600081840152601f19601f820116905080830192505050505050509192919290505050610805565b005b3480156103e657600080fd5b50610557600480360360608110156103fd57600080fd5b81019080803573ffffffffffffffffffffffffffffffffffffffff1690602001909291908035906020019064010000000081111561043a57600080fd5b82018360208201111561044c57600080fd5b8035906020019184600183028401116401000000008311171561046e57600080fd5b91908080601f016020809104026020016040519081016040528093929190818152602001838380828437600081840152601f19601f820116905080830192505050505050509192919290803590602001906401000000008111156104d157600080fd5b8201836020820111156104e357600080fd5b8035906020019184600183028401116401000000008311171561050557600080fd5b91908080601f016020809104026020016040519081016040528093929190818152602001838380828437600081840152601f19601f820116905080830192505050505050509192919290505050611018565b005b60008054905090565b60405160200180807f43656e7472616c00000000000000000000000000000000000000000000000000815250600701905060405160208183030381529060405280519060200120600160003373ffffffffffffffffffffffffffffffffffffffff1673ffffffffffffffffffffffffffffffffffffffff16815260200190815260200160002060030160405160200180828054600181600116156101000203166002900480156106495780601f10610627576101008083540402835291820191610649565b820191906000526020600020905b815481529060010190602001808311610635575b5050915050604051602081830303815290604052805190602001201461066e57600080fd5b81600080828254019250508190555081600160003373ffffffffffffffffffffffffffffffffffffffff1673ffffffffffffffffffffffffffffffffffffffff168152602001908152602001600020600101600082825401925050819055507f130771cc3fdee515872d8aa5f96de0afd1299643b853cccec2dd85eb692c8a518282604051808381526020018060200180602001838103835260128152602001807f43656e7472616c20476f7665726e6d656e740000000000000000000000000000815250602001838103825284818151815260200191508051906020019080838360005b8381101561076e578082015181840152602081019050610753565b50505050905090810190601f16801561079b5780820380516001836020036101000a031916815260200191505b5094505050505060405180910390a15050565b60005481565b600080600160008473ffffffffffffffffffffffffffffffffffffffff1673ffffffffffffffffffffffffffffffffffffffff16815260200190815260200160002060010154905080915050919050565b60405160200180807f43656e7472616c00000000000000000000000000000000000000000000000000815250600701905060405160208183030381529060405280519060200120600160003373ffffffffffffffffffffffffffffffffffffffff1673ffffffffffffffffffffffffffffffffffffffff16815260200190815260200160002060030160405160200180828054600181600116156101000203166002900480156108ec5780601f106108ca5761010080835404028352918201916108ec565b820191906000526020600020905b8154815290600101906020018083116108d8575b5050915050604051602081830303815290604052805190602001201480610a12575060405160200180807f5374617465000000000000000000000000000000000000000000000000000000815250600501905060405160208183030381529060405280519060200120600160003373ffffffffffffffffffffffffffffffffffffffff1673ffffffffffffffffffffffffffffffffffffffff16815260200190815260200160002060030160405160200180828054600181600116156101000203166002900480156109f55780601f106109d35761010080835404028352918201916109f5565b820191906000526020600020905b8154815290600101906020018083116109e1575b505091505060405160208183030381529060405280519060200120145b610a1b57600080fd5b60006002836040518082805190602001908083835b60208310610a535780518252602082019150602081019050602083039250610a30565b6001836020036101000a038019825116818451168082178552505050505050905001915050908152602001604051809103902060009054906101000a900473ffffffffffffffffffffffffffffffffffffffff1690506002836040518082805190602001908083835b60208310610adf5780518252602082019150602081019050602083039250610abc565b6001836020036101000a038019825116818451168082178552505050505050905001915050908152602001604051809103902060009054906101000a900473ffffffffffffffffffffffffffffffffffffffff16604051602001808273ffffffffffffffffffffffffffffffffffffffff1673ffffffffffffffffffffffffffffffffffffffff1660601b81526014019150506040516020818303038152906040528051906020012033604051602001808273ffffffffffffffffffffffffffffffffffffffff1673ffffffffffffffffffffffffffffffffffffffff1660601b8152601401915050604051602081830303815290604052805190602001201415610be957600080fd5b84600160008373ffffffffffffffffffffffffffffffffffffffff1673ffffffffffffffffffffffffffffffffffffffff1681526020019081526020016000206001016000828254019250508190555084600160003373ffffffffffffffffffffffffffffffffffffffff1673ffffffffffffffffffffffffffffffffffffffff168152602001908152602001600020600101600082825403925050819055507f5322a2801468793e720d8dce7a2bd48bd7dac2ddc758acb3269e0d9e00073a55853383600160003373ffffffffffffffffffffffffffffffffffffffff1673ffffffffffffffffffffffffffffffffffffffff168152602001908152602001600020600201600160008773ffffffffffffffffffffffffffffffffffffffff1673ffffffffffffffffffffffffffffffffffffffff1681526020019081526020016000206002018988604051808881526020018773ffffffffffffffffffffffffffffffffffffffff1673ffffffffffffffffffffffffffffffffffffffff1681526020018673ffffffffffffffffffffffffffffffffffffffff1673ffffffffffffffffffffffffffffffffffffffff16815260200180602001806020018060200180602001858103855289818154600181600116156101000203166002900481526020019150805460018160011615610100020316600290048015610e325780601f10610e0757610100808354040283529160200191610e32565b820191906000526020600020905b815481529060010190602001808311610e1557829003601f168201915b5050858103845288818154600181600116156101000203166002900481526020019150805460018160011615610100020316600290048015610eb55780601f10610e8a57610100808354040283529160200191610eb5565b820191906000526020600020905b815481529060010190602001808311610e9857829003601f168201915b5050858103835287818151815260200191508051906020019080838360005b83811015610eef578082015181840152602081019050610ed4565b50505050905090810190601f168015610f1c5780820380516001836020036101000a031916815260200191505b50858103825286818151815260200191508051906020019080838360005b83811015610f55578082015181840152602081019050610f3a565b50505050905090810190601f168015610f825780820380516001836020036101000a031916815260200191505b509b50505050505050505050505060405180910390a17f6f05236085a34f7de4957a8d0d11180ac6099cae5bb5b2b742bcc3914eb2e218600160003373ffffffffffffffffffffffffffffffffffffffff1673ffffffffffffffffffffffffffffffffffffffff168152602001908152602001600020600101546040518082815260200191505060405180910390a15050505050565b82600160008573ffffffffffffffffffffffffffffffffffffffff1673ffffffffffffffffffffffffffffffffffffffff16815260200190815260200160002060000160006101000a81548173ffffffffffffffffffffffffffffffffffffffff021916908373ffffffffffffffffffffffffffffffffffffffff16021790555081600160008573ffffffffffffffffffffffffffffffffffffffff1673ffffffffffffffffffffffffffffffffffffffff16815260200190815260200160002060020190805190602001906110ef929190611379565b506000600160008573ffffffffffffffffffffffffffffffffffffffff1673ffffffffffffffffffffffffffffffffffffffff1681526020019081526020016000206001018190555080600160008573ffffffffffffffffffffffffffffffffffffffff1673ffffffffffffffffffffffffffffffffffffffff168152602001908152602001600020600301908051906020019061118e929190611379565b50826002836040518082805190602001908083835b602083106111c657805182526020820191506020810190506020830392506111a3565b6001836020036101000a038019825116818451168082178552505050505050905001915050908152602001604051809103902060006101000a81548173ffffffffffffffffffffffffffffffffffffffff021916908373ffffffffffffffffffffffffffffffffffffffff1602179055507feb0e2355d126e6af7c4add22bdecda8e20471ba8d1ed2569107cbcacd57ecbe082848360405180806020018473ffffffffffffffffffffffffffffffffffffffff1673ffffffffffffffffffffffffffffffffffffffff16815260200180602001838103835286818151815260200191508051906020019080838360005b838110156112d15780820151818401526020810190506112b6565b50505050905090810190601f1680156112fe5780820380516001836020036101000a031916815260200191505b50838103825284818151815260200191508051906020019080838360005b8381101561133757808201518184015260208101905061131c565b50505050905090810190601f1680156113645780820380516001836020036101000a031916815260200191505b509550505050505060405180910390a1505050565b828054600181600116156101000203166002900490600052602060002090601f016020900481019282601f106113ba57805160ff19168380011785556113e8565b828001600101855582156113e8579182015b828111156113e75782518255916020019190600101906113cc565b5b5090506113f591906113f9565b5090565b61141b91905b808211156114175760008160009055506001016113ff565b5090565b9056fea265627a7a7231582068ecb04f1fb9eed38c7dd43cd1f06ea47c19338d0d77b87a9967ed8ae188ea9764736f6c63430005100032",
  "source": "pragma solidity >=0.4.21 <=0.8.4;\n\ncontract FundTransfer{\n    \n    uint public totalFunds=0;\n\n\n    \n    struct GovermentBody{\n        address accoutNumber;\n        uint accountBalance;\n        string govermentBodyName;\n        string govermentBodyRole;\n    }\n    \n    event AddFund(\n        \n        uint funds,\n        string govtBody,\n        string time \n    \n    );\n    \n    \n    event TransferFund(\n        \n        uint funds,\n        address senderGovtBody,\n        address receiverGovtBody,\n        string senderGovtBodyName,\n        string receiverGovtBodyName,\n        string projectName,\n        string timestamp\n        \n    );\n\n    mapping(address => GovermentBody) govermentBodyMapping;\n\n    mapping(string => address) govtBodyNameMapping;\n\n    \n    event AddedGovtBody(\n        string govtBodyName,\n        address accNumber,\n        string govtBodyRole\n    );\n\n    event YourBalance(\n        uint balance\n    );\n    \n\n    function addGovernmentBody(address accNumber,string memory govtBodyName,string memory govtBodyRole) public {\n        govermentBodyMapping[accNumber].accoutNumber =accNumber;\n        govermentBodyMapping[accNumber].govermentBodyName = govtBodyName;\n        govermentBodyMapping[accNumber].accountBalance=0;\n        govermentBodyMapping[accNumber].govermentBodyRole = govtBodyRole; \n\n        govtBodyNameMapping[govtBodyName] = accNumber;\n\n      \n        emit AddedGovtBody(govtBodyName,accNumber,govtBodyRole);\n\n    }\n    \n    \n    function addFunds(uint funds,string memory time) public {\n\n        require((keccak256(abi.encodePacked(govermentBodyMapping[msg.sender].govermentBodyRole)) \n        == keccak256(abi.encodePacked(\"Central\"))));\n\n        totalFunds+=funds;\n        \n        govermentBodyMapping[msg.sender].accountBalance+=funds;\n\n        emit AddFund(funds,\"Central Government\",time);\n    }\n    \n    function transferFunds(uint funds,string memory projectName,string memory govtBodyName,string memory timestamp) public {\n        \n        require(\n        \n        (keccak256(abi.encodePacked(govermentBodyMapping[msg.sender].govermentBodyRole)) \n        == keccak256(abi.encodePacked(\"Central\"))) ||\n\n        (keccak256(abi.encodePacked(govermentBodyMapping[msg.sender].govermentBodyRole)) \n        == keccak256(abi.encodePacked(\"State\"))));\n\n        address fundRecevier = govtBodyNameMapping[govtBodyName];\n\n        require((keccak256(abi.encodePacked(msg.sender))) != (keccak256(abi.encodePacked(govtBodyNameMapping[govtBodyName]))));\n             \n        govermentBodyMapping[fundRecevier].accountBalance+=funds;\n\n        govermentBodyMapping[msg.sender].accountBalance-=funds;\n        \n        emit TransferFund(funds,msg.sender,fundRecevier,govermentBodyMapping[msg.sender].govermentBodyName,govermentBodyMapping[fundRecevier].govermentBodyName,projectName,timestamp);\n\n        emit YourBalance(govermentBodyMapping[msg.sender].accountBalance);\n\n    }\n    \n    function getFundBalance(address fok) public payable returns (uint) {\n        uint mbal = govermentBodyMapping[fok].accountBalance;\n        return mbal;\n    }\n\n    // Displays remaining balance from the total sanctioned funds\n\n    function  getTotalFundBalance() public view returns (uint){\n\n        return totalFunds;\n    }\n    \n}\n\n\n",
  "sourcePath": "C:\\Users\\user\\Desktop\\project\\funds3.0\\funds3.0\\contracts\\FundTransfer.sol",
  "compiler": {
    "name": "solc",
    "version": "0.5.16+commit.9c3226ce.Emscripten.clang"
  },
  "schemaVersion": "3.4.5",
  "updatedAt": "2024-05-07T14:35:43.547Z",
  "networkType": "ethereum",
  "devdoc": {
    "methods": {}
  },
  "userdoc": {
    "methods": {}
  }
}